:020000040800F2
:10000000600600206D010008A1040008A903000893
:100010009F040008270200084906000800000000AD
:100020000000000000000000000000003D05000886
:1000300029020008000000001D050008F505000861
:100040008701000887010008870100088701000870
:1000500087010008870100082D02000887010008B9
:100060008701000887010008870100088701000850
:100070008701000887010008870100088701000840
:100080008701000887010008870100088701000830
:100090008701000887010008870100088701000820
:1000A0008701000887010008870100088701000810
:1000B0008701000887010008870100088701000800
:1000C00087010008870100088701000887010008F0
:1000D00087010008870100088701000887010008E0
:1000E00087010008870100088701000800F002F876
:1000F00000F02CF80AA090E8000C82448344AAF196
:100100000107DA4501D100F021F8AFF2090EBAE893
:100110000F0013F0010F18BFFB1A43F0010318473B
:1001200038050000480500000023002400250026B3
:10013000103A28BF78C1FBD8520728BF30C148BF4A
:100140000B6070471FB51FBD10B510BD00F031F832
:100150001146FFF7F7FF00F078FA00F04FF803B40C
:10016000FFF7F2FF03BC00F057F800000948804792
:1001700009480047FEE7FEE7FEE7FEE7FEE7FEE789
:10018000FEE7FEE7FEE7FEE704480549054A064BA1
:1001900070470000F9050008ED000008600000202D
:1001A0006006002060020020600200207047704757
:1001B0007047754600F02CF8AE4605006946534678
:1001C00020F00700854618B020B5FFF7DDFFBDE839
:1001D00020404FF000064FF000074FF000084FF0AE
:1001E000000B21F00701AC46ACE8C009ACE8C0093F
:1001F000ACE8C009ACE8C0098D46704710B50446AC
:10020000AFF300802046BDE81040FFF7A8BF000014
:10021000004870470000002001491820ABBEFEE7EF
:10022000260002007047FEE77047000010B501216C
:10023000034800F01FF9BDE81040012000F002B8AB
:1002400000080140014908607047000014040140A3
:1002500030B51B4A83790168002B2AD013688B4381
:100260001360111D0B680468A3430B6001791144EE
:100270000B68046823430B60114C08342168036841
:1002800099432160231D19680568A94319604179C4
:10029000102905D011440A68006802430A6030BD85
:1002A00021680268114321601968006801431960E0
:1002B00030BD0079104402688A43026030BD0000FE
:1002C0000004014010B58A07120F0F23934021F05C
:1002D0000304054921448C689C438C608B689040E2
:1002E00003438B6010BD0000000001402DE9F04188
:1002F0000022CC7804F00F03E40601D58C78234368
:100300000C784FF00F0714F0FF0F4FF0010C1CD0CA
:1003100005680CFA02F40E882640A64211D1960018
:1003200007FA06F825EA080503FA06F848EA05057B
:10033000CE78282E02D0482E02D002E0446100E0A0
:100340000461521C082AE4D305600A88FF2A1ED9DA
:100350004568002202F108060CFA06F40E882640D1
:10036000A64210D1960007FA06F825EA080503FA16
:1003700006F848EA0505CE78282E00D14461CE78EB
:10038000482E00D10461521C082AE3D34560BDE821
:10039000F08102460020D2680A4200D00120704756
:1003A0004161704701617047FEE700001FB5012100
:1003B000042000F0B5F80121084600F0B1F848200B
:1003C0008DF80F000124ADF80C4003208DF80E00CD
:1003D00003A91248FFF78AFF00210846FFF772FFC2
:1003E00001948DF80A4000208DF808000C208DF84B
:1003F000090001A8FFF72CFF4FF4A06000F084F87B
:1004000006208DF800008DF803408DF801408DF82E
:100410000240684600F046F81FBD00000008014099
:1004200008B50121042000F07BF810208DF80300AE
:100430000320ADF800008DF8020069460148FFF77F
:1004400055FF08BD0008014008B50121082000F053
:1004500067F810208DF80300FF20ADF8000003209E
:100460008DF8020069460248FFF740FF08BD000012
:10047000000C014070B504460D4629462046FFF7A2
:1004800088FF012805D029462046BDE87040FFF7C7
:1004900089BF29462046BDE87040FFF781BFFEE7CF
:1004A0007047000070B50F23C27801260178002A3A
:1004B0001ED0144A126802F4E062C2F5E062120A29
:1004C000C2F10404D3404578A54082781A402A43FB
:1004D000120101F1E02181F80024007800F01F01F1
:1004E0008E404009800000F1E020C0F8006170BD3E
:1004F00001F01F0086404809800000F1E020C0F8AC
:10050000806170BD0CED00E00249084302490860BB
:10051000704700000000FA050CED00E07047000095
:10052000054A002903D0916901439161704791699F
:10053000814391617047000000100240704700F055
:1005400001B800000CB50022019200922748016812
:1005500041F4803101604FF4A063016801F400317F
:1005600000910199491C0191009911B90199994291
:10057000F3D10168890302D50121009100E00092C6
:100580000099012930D11A490A6842F010020A6024
:100590000A6822F003020A600A6842F002020A6056
:1005A0004168416041684160416841F48061416057
:1005B000416821F47C114160416841F4E8114160D7
:1005C000016841F08071016001688901FCD54168D2
:1005D00021F003014160416841F00201416041683E
:1005E000C1F381010229FAD10CBD000000100240C4
:1005F000002002407047000010B50F48016841F02C
:100600000101016041680D4A1140416001680C4AD6
:1006100011400160016821F480210160416821F4EA
:10062000FE0141604FF41F018160FFF788FF05491B
:100630004FF00060086010BD001002400000FFF89D
:10064000FFFFF6FE08ED00E0FEE7FFF7E9FEFFF72B
:10065000FBFEFFF7ABFEFEE7680600080000002087
:080660006006000028010008FB
:040000050800016D81
:00000001FF
