:020000040800F2
:10000000680600208901000833040008C9030008BD
:1000100031040008430200085908000800000000ED
:10002000000000000000000000000000D5040008EF
:100030001903000800000000990400088D0500085D
:10004000A3010008A3010008A3010008A301000800
:10005000A3010008A3010008A3010008A3010008F0
:10006000A3010008A3010008A3010008A3010008E0
:10007000A3010008A3010008A3010008A3010008D0
:10008000A3010008A3010008A3010008A3010008C0
:10009000A3010008A3010008A3010008A3010008B0
:1000A000A3010008A3010008A3010008A3010008A0
:1000B000E1050008A3010008A3010008A30100084E
:1000C000A3010008A3010008A3010008A301000880
:1000D000A3010008A3010008A3010008A301000870
:1000E000A3010008A3010008A301000800F002F822
:1000F00000F03AF80AA090E8000C82448344AAF188
:100100000107DA4501D100F02FF8AFF2090EBAE885
:100110000F0013F0010F18BFFB1A43F0010318473B
:100120005808000078080000103A24BF78C878C149
:10013000FAD8520724BF30C830C144BF04680C60ED
:10014000704700000023002400250026103A28BF35
:1001500078C1FBD8520728BF30C148BF0B60704739
:100160001FB51FBD10B510BD00F031F81146FFF7E7
:10017000F7FF00F073FB00F04FF803B4FFF7F2FF56
:1001800003BC00F057F800000948804709480047C1
:10019000FEE7FEE7FEE7FEE7FEE7FEE7FEE7FEE737
:1001A000FEE7FEE704480549054A064B7047000094
:1001B00091050008ED000008680000206806002096
:1001C000680200206802002070477047704775463B
:1001D00000F02CF8AE4605006946534620F00700B3
:1001E000854618B020B5FFF7DDFFBDE820404FF091
:1001F00000064FF000074FF000084FF0000B21F011
:100200000701AC46ACE8C009ACE8C009ACE8C009DD
:10021000ACE8C0098D46704710B50446AFF30080C6
:100220002046BDE81040FFF7A8BF00000048704717
:100230000400002001491820ABBEFEE726000200A2
:100240007047FEE730B589B00121042000F026F99F
:100250000121082000F030F94FF48070ADF8200043
:1002600018208DF8230003208DF8220008A91648D5
:1002700000F053F80024ADF81A40ADF8164040F2F3
:10028000E730ADF818004720ADF814000F4D05A970
:10029000284600F093FA6021ADF804100121ADF872
:1002A0000610ADF80A400221ADF80C1001A928464D
:1002B00000F038FA0821284600F076FA0121284695
:1002C00000F0D9F909B030BD000C01400008004031
:1002D00070B50C4A00280FD00B49B1FBF0F4641E36
:1002E0001546A1B2284600F065FAC4F34F0128462E
:1002F000BDE8704000F060BABDE8704000211046D3
:1003000000F05ABA0008004040420F0000210148A6
:1003100000F052BA0008004070472DE9F041002279
:10032000CC7804F00F03E40601D58C7823430C78D5
:100330004FF00F0714F0FF0F4FF0010C1CD00568B1
:100340000CFA02F40E882640A64211D1960007FA54
:1003500006F825EA080503FA06F848EA0505CE7806
:10036000282E02D0482E02D002E0446100E0046151
:10037000521C082AE4D305600A88FF2A1ED9456862
:10038000002202F108060CFA06F40E882640A64266
:1003900010D1960007FA06F825EA080503FA06F8D0
:1003A00048EA0505CE78282E00D14461CE78482E43
:1003B00000D10461521C082AE3D34560BDE8F081F6
:1003C00041617047C1607047FEE7000008B5012138
:1003D000042000F071F810208DF80300FF20ADF824
:1003E000000003208DF8020069460248FFF795FFE0
:1003F00008BD00000008014008B50121082000F0F8
:100400005BF810208DF80300FF20ADF800000320FA
:100410008DF8020069460248FFF77FFF08BD000023
:10042000000C014001460148FFF7CCBF0008014025
:10043000FEE7704770B50F23C27801260178002AC5
:100440001ED0144A126802F4E062C2F5E062120A99
:10045000C2F10404D3404578A54082781A402A436B
:10046000120101F1E02181F80024007800F01F0161
:100470008E404009800000F1E020C0F8006170BDAE
:1004800001F01F0086404809800000F1E020C0F81C
:10049000806170BD0CED00E070470000054A002946
:1004A00003D0D1690143D1617047D1698143D161E2
:1004B0007047000000100240054A002903D09169EE
:1004C00001439161704791698143916170470000D8
:1004D00000100240704700F001B800000CB5002287
:1004E000019200922748016841F4803101604FF485
:1004F000A063016801F4003100910199491C019148
:10050000009911B901999942F3D10168890302D583
:100510000121009100E000920099012930D11A498F
:100520000A6842F010020A600A6822F003020A60B8
:100530000A6842F002020A60416841604168416015
:10054000416841F480614160416821F47C1141605F
:10055000416841F4E8114160016841F08071016037
:1005600001688901FCD5416821F0030141604168BF
:1005700041F0020141604168C1F381010229FAD1D1
:100580000CBD000000100240002002407047000037
:1005900010B50F48016841F00101016041680D4A42
:1005A0001140416001680C4A11400160016821F46A
:1005B00080210160416821F4FE0141604FF41F0178
:1005C0008160FFF788FF05494FF00060086010BDAB
:1005D000001002400000FFF8FFFFF6FE08ED00E00B
:1005E00070B501218C07204600F051F8002839D061
:1005F0000121204600F03CF81B4C6088401C6080C4
:1006000020881A4D00EB400005EB400061884088CF
:10061000884227D22088618800EB400005EB40002B
:1006200040881E30884203D3BDE87040FFF76EBE9D
:100630002088401C208021880020292900D9208082
:100640006080208800EB400035F81000FFF740FE86
:10065000208800EB400005EB40000079BDE87040C9
:10066000FFF7E0BE70BD0000000000207C0800081D
:10067000C94301827047002904D0018841F001017B
:1006800001807047018821F0010101807047024616
:100690000020138A0B4092890A40002B02D0002AC6
:1006A00000D0012070477FB501210846FFF7F6FE14
:1006B0000024ADF80A40ADF806406320ADF808000C
:1006C00040F2CF20ADF804004FF0804501A9284644
:1006D00000F074F81C218DF800108DF80140012104
:1006E0008DF802108DF803106846FFF7A3FE012273
:1006F0001146284600F00CF84FF4C470FFF7E8FDEF
:100700000120FFF78FFE01212846FFF7B4FF7FBDD0
:10071000002A03D082890A438281704782898A43F2
:100720008281704770B5028C22F480720284028C40
:100730008388848B24F0700424F003040D882543FF
:1007400022F400720E894FF6FF7404EA062616435F
:100750004A8804EA02223243114EB04202D0114EBE
:10076000B04217D122F400664A8904EA02223243D9
:1007700022F480668A8804EA0222324323F48053FA
:1007800023F400538E8904EA06161E43CB8904EA3B
:100790000313334383808583C9888187028470BDB6
:1007A000002C014000340140828B22F008020A43F1
:1007B00082837047818570478187704730B5028892
:1007C0001B4C1C4DA0420DD0A8420BD0B0F1804F65
:1007D00008D0194B984205D0184B984202D0184BBC
:1007E000984203D122F070034A881A43154B98426D
:1007F00006D0154B984203D022F44073CA881A439E
:1008000002808A8882850A880285A0420AD0A8428E
:1008100008D00E4A904205D00D4A904202D00D4AAF
:10082000904201D1097A01860121818230BD000008
:10083000002C01400034014000040040000800404A
:10084000000C004000100040001400400040014037
:100850000044014000480140FEE70000FFF7B6FDFC
:10086000FFF7CAFDFFF7EEFCFFF71DFF022102486C
:10087000FFF7A6FDFEE70000000801408801900197
:100880000100B80190010100EE01C8000200EE0174
:10089000C8000200EE01C8000400B801C80004004E
:1008A000EE01C8000200930290010800930290013B
:1008B0000800E402900110004B02580210000000F2
:1008C000C80000008801C8002000B801C80020004E
:1008D000B801C8000100B801C80001008801C800C3
:1008E0000100B801C80001004B02900101000B0299
:1008F000900101004B02900101004B0290010100A8
:10090000EE01580201008801C80001004B02C80036
:1009100001009302C80001009302C80001004B02CD
:10092000C80001009302580201009302C8000100B0
:100930009302C8000100E402C8000100E402C800FC
:1009400001009302C8000100E40258020100930272
:10095000C8000100E40258020100E402C8000100DE
:100960009302900101001003C8000100E402580244
:1009700001000000000000009809000800000020AD
:1009800004000000280100089C0900080400002061
:0C099000640600004401000800000000A4
:040000050800018965
:00000001FF
