:020000040800F2
:10000000600600206D01000871030008E702000887
:100010006F030008270200089D040008000000008C
:100020000000000000000000000000009103000834
:1000300029020008000000007303000849040008BA
:100040008701000887010008870100088701000870
:100050008701000887010008870100088701000860
:100060008701000887010008870100088701000850
:100070008701000887010008870100088701000840
:100080008701000887010008870100088701000830
:100090008701000887010008870100088701000820
:1000A0008701000887010008870100088701000810
:1000B0008701000887010008870100088701000800
:1000C00087010008870100088701000887010008F0
:1000D00087010008870100088701000887010008E0
:1000E00087010008870100088701000800F002F876
:1000F00000F02CF80AA090E8000C82448344AAF196
:100100000107DA4501D100F021F8AFF2090EBAE893
:100110000F0013F0010F18BFFB1A43F0010318473B
:10012000C0030000D00300000023002400250026A7
:10013000103A28BF78C1FBD8520728BF30C148BF4A
:100140000B6070471FB51FBD10B510BD00F031F832
:100150001146FFF7F7FF00F0A3F900F04FF803B4E2
:10016000FFF7F2FF03BC00F057F800000948804792
:1001700009480047FEE7FEE7FEE7FEE7FEE7FEE789
:10018000FEE7FEE7FEE7FEE704480549054A064BA1
:10019000704700004D040008ED00000860000020DA
:1001A0006006002060020020600200207047704757
:1001B0007047754600F02CF8AE4605006946534678
:1001C00020F00700854618B020B5FFF7DDFFBDE839
:1001D00020404FF000064FF000074FF000084FF0AE
:1001E000000B21F00701AC46ACE8C009ACE8C0093F
:1001F000ACE8C009ACE8C0098D46704710B50446AC
:10020000AFF300802046BDE81040FFF7A8BF000014
:10021000004870470000002001491820ABBEFEE7EF
:10022000260002007047FEE770472DE9F0410022EA
:10023000CC7804F00F03E40601D58C7823430C78C6
:100240004FF00F0714F0FF0F4FF0010C1CD00568A2
:100250000CFA02F40E882640A64211D1960007FA45
:1002600006F825EA080503FA06F848EA0505CE78F7
:10027000282E02D0482E02D002E0446100E0046142
:10028000521C082AE4D305600A88FF2A1ED9456853
:10029000002202F108060CFA06F40E882640A64257
:1002A00010D1960007FA06F825EA080503FA06F8C1
:1002B00048EA0505CE78282E00D14461CE78482E34
:1002C00000D10461521C082AE3D34560BDE8F081E7
:1002D00002460020D2680A4200D0012070474161E6
:1002E000704701617047FEE708B50121042000F066
:1002F00041F810208DF803000320ADF800008DF8C0
:10030000020069460148FFF790FF08BD0008014060
:1003100008B50121082000F02DF810208DF8030009
:10032000FF20ADF8000003208DF802006946024866
:10033000FFF77BFF08BD0000000C0140FFF7CFBFB7
:10034000FFF7CFBF70B504460D4629462046FFF79C
:10035000BFFF012805D029462046BDE87040FFF7C1
:10036000C0BF29462046BDE87040FFF7B8BFFEE792
:1003700070477047054A002903D091690143916194
:1003800070479169814391617047000000100240FD
:10039000704700F001B800000CB5002201920092F5
:1003A0002748016841F4803101604FF4A06301687F
:1003B00001F4003100910199491C0191009911B992
:1003C00001999942F3D10168890302D50121009175
:1003D00000E000920099012930D11A490A6842F0E0
:1003E00010020A600A6822F003020A600A6842F0FA
:1003F00002020A604168416041684160416841F41D
:1004000080614160416821F47C114160416841F4A0
:10041000E8114160016841F0807101600168890163
:10042000FCD5416821F003014160416841F00201BF
:1004300041604168C1F381010229FAD10CBD00007D
:1004400000100240002002407047000010B50F4825
:10045000016841F00101016041680D4A11404160AD
:1004600001680C4A11400160016821F4802101609B
:10047000416821F4FE0141604FF41F018160FFF7E4
:1004800088FF05494FF00060086010BD0010024071
:100490000000FFF8FFFFF6FE08ED00E0FEE70000B9
:1004A000FFF722FFFFF734FF0B4D0C4C02212846CB
:1004B000FFF746FF01212846FFF740FF0021491CB6
:1004C000A142FCDB01212846FFF73CFF0021491C2B
:1004D000A142FCDBEAE7000000080140809698009A
:1004E000F004000800000020600600002801000859
:040000050800016D81
:00000001FF
