:020000040800F2
:10000000B0060020890100085B030008F502000823
:100010005903000843020008A90600080000000078
:10002000000000000000000000000000FD030008C8
:100030004502000800000000C1030008B5040008E4
:10004000A3010008A3010008A3010008A301000800
:10005000A3010008A3010008A3010008A3010008F0
:10006000A3010008A3010008A3010008A3010008E0
:10007000A3010008A3010008A3010008A3010008D0
:10008000A3010008A3010008A3010008A3010008C0
:10009000A3010008A3010008A3010008A3010008B0
:1000A000A3010008A3010008A3010008A3010008A0
:1000B00009050008A3010008A3010008A301000826
:1000C000A3010008A3010008A3010008A301000880
:1000D000A3010008A3010008A3010008A301000870
:1000E000A3010008A3010008A301000800F002F822
:1000F00000F03AF80AA090E8000C82448344AAF188
:100100000107DA4501D100F02FF8AFF2090EBAE885
:100110000F0013F0010F18BFFB1A43F0010318473B
:1001200098050000B8050000103A24BF78C878C1CF
:10013000FAD8520724BF30C830C144BF04680C60ED
:10014000704700000023002400250026103A28BF35
:1001500078C1FBD8520728BF30C148BF0B60704739
:100160001FB51FBD10B510BD00F031F81146FFF7E7
:10017000F7FF00F09AFA00F04FF803B4FFF7F2FF30
:1001800003BC00F057F800000948804709480047C1
:10019000FEE7FEE7FEE7FEE7FEE7FEE7FEE7FEE737
:1001A000FEE7FEE704480549054A064B7047000094
:1001B000B9040008ED000008B0000020B0060020DF
:1001C000B0020020B00200207047704770477546AB
:1001D00000F02CF8AE4605006946534620F00700B3
:1001E000854618B020B5FFF7DDFFBDE820404FF091
:1001F00000064FF000074FF000084FF0000B21F011
:100200000701AC46ACE8C009ACE8C009ACE8C009DD
:10021000ACE8C0098D46704710B50446AFF30080C6
:100220002046BDE81040FFF7A8BF00000048704717
:100230004C00002001491820ABBEFEE7260002005A
:100240007047FEE770472DE9F0410022CC7804F0BA
:100250000F03E40601D58C7823430C784FF00F0789
:1002600014F0FF0F4FF0010C1CD005680CFA02F4DB
:100270000E882640A64211D1960007FA06F825EA14
:10028000080503FA06F848EA0505CE78282E02D0BC
:10029000482E02D002E0446100E00461521C082AAA
:1002A000E4D305600A88FF2A1ED94568002202F1BE
:1002B00008060CFA06F40E882640A64210D19600D5
:1002C00007FA06F825EA080503FA06F848EA0505DC
:1002D000CE78282E00D14461CE78482E00D104611A
:1002E000521C082AE3D34560BDE8F08141617047A4
:1002F00001617047FEE7000008B50121042000F00D
:100300006FF810208DF80300FF20ADF800000320E7
:100310008DF8020069460248FFF795FF08BD00000E
:100320000008014008B50121082000F059F810200C
:100330008DF80300FF20ADF8000003208DF80200C7
:1003400069460248FFF77FFF08BD0000000C01402E
:10035000FFF7CCBFFFF7CCBFFEE7704770B50F23A8
:10036000C27801260178002A1ED0144A126802F4CD
:10037000E062C2F5E062120AC2F10404D34045789B
:10038000A54082781A402A43120101F1E02181F848
:100390000024007800F01F018E404009800000F129
:1003A000E020C0F8006170BD01F01F0086404809E0
:1003B000800000F1E020C0F8806170BD0CED00E02D
:1003C00070470000054A002903D0D1690143D1617B
:1003D0007047D1698143D16170470000001002402D
:1003E000054A002903D091690143916170479169E1
:1003F000814391617047000000100240704700F097
:1004000001B800000CB50022019200922748016853
:1004100041F4803101604FF4A063016801F40031C0
:1004200000910199491C0191009911B901999942D2
:10043000F3D10168890302D50121009100E0009207
:100440000099012930D11A490A6842F010020A6065
:100450000A6822F003020A600A6842F002020A6097
:100460004168416041684160416841F48061416098
:10047000416821F47C114160416841F4E811416018
:10048000016841F08071016001688901FCD5416813
:1004900021F003014160416841F00201416041687F
:1004A000C1F381010229FAD10CBD00000010024005
:1004B000002002407047000010B50F48016841F06D
:1004C0000101016041680D4A1140416001680C4A18
:1004D00011400160016821F480210160416821F42C
:1004E000FE0141604FF41F018160FFF788FF05495D
:1004F0004FF00060086010BD001002400000FFF8DF
:10050000FFFFF6FE08ED00E070B501218C072046E4
:1005100000F037F8002821D00121204600F022F811
:100520000F4D2C1F207805EBC0008188207855F8EE
:100530003000FFF70DFF2078401C2070207809283C
:1005400001D300202070207805EBC000818820783E
:1005500055F83000BDE87040FFF7FCBE70BD0000EC
:1005600004000020C94301827047002904D001889B
:1005700041F0010101807047018821F001010180F3
:10058000704702460020138A0B4092890A40002BD4
:1005900002D0002A00D0012070477FB50121084613
:1005A000FFF710FF0024ADF80A40ADF8064040F216
:1005B000E730ADF8080041F61F40ADF804004FF0F9
:1005C000804501A9284600F021F81C218DF8001073
:1005D0008DF8014001218DF802108DF80310684656
:1005E000FFF7BCFE01221146284600F005F8012164
:1005F0002846FFF7BAFF7FBD002A03D082890A434D
:100600008281704782898A438281704730B502882F
:100610001B4C1C4DA0420DD0A8420BD0B0F1804F16
:1006200008D0194B984205D0184B984202D0184B6D
:10063000984203D122F070034A881A43154B98421E
:1006400006D0154B984203D022F44073CA881A434F
:1006500002808A8882850A880285A0420AD0A84240
:1006600008D00E4A904205D00D4A904202D00D4A61
:10067000904201D1097A01860121818230BD0000BA
:10068000002C0140003401400004004000080040FC
:10069000000C0040001000400014004000400140E9
:1006A0000044014000480140FEE7FFF725FEFFF748
:1006B00039FEFFF772FFFEE7D806000800000020B1
:1006C0004C00000028010008240700084C0000200E
:1006D000640600004401000800000000000801401A
:1006E0000100000000080140020000000008014075
:1006F000040000000008014008000000000801405C
:100700001000000000080140200000000008014027
:10071000400000000008014080000000000C014083
:0407200001000000D4
:040000050800018965
:00000001FF
