:020000040800F2
:10000000600600206D01000871030008E702000887
:100010006F03000827020008BD060008000000006A
:1000200000000000000000000000000015040008AF
:100030002902000800000000D9030008CD040008D0
:100040008701000887010008870100088701000870
:100050008701000887010008870100088701000860
:100060008701000887010008870100088701000850
:100070008701000887010008870100088701000840
:100080008701000887010008870100088701000830
:100090008701000887010008870100088701000820
:1000A0008701000887010008870100088701000810
:1000B0002105000887010008870100088701000862
:1000C00087010008870100088701000887010008F0
:1000D00087010008870100088701000887010008E0
:1000E00087010008870100088701000800F002F876
:1000F00000F02CF80AA090E8000C82448344AAF196
:100100000107DA4501D100F021F8AFF2090EBAE893
:100110000F0013F0010F18BFFB1A43F0010318473B
:10012000DC050000EC05000000230024002500266B
:10013000103A28BF78C1FBD8520728BF30C148BF4A
:100140000B6070471FB51FBD10B510BD00F031F832
:100150001146FFF7F7FF00F0B3FA00F04FF803B4D1
:10016000FFF7F2FF03BC00F057F800000948804792
:1001700009480047FEE7FEE7FEE7FEE7FEE7FEE789
:10018000FEE7FEE7FEE7FEE704480549054A064BA1
:1001900070470000D1040008ED0000086000002056
:1001A0006006002060020020600200207047704757
:1001B0007047754600F02CF8AE4605006946534678
:1001C00020F00700854618B020B5FFF7DDFFBDE839
:1001D00020404FF000064FF000074FF000084FF0AE
:1001E000000B21F00701AC46ACE8C009ACE8C0093F
:1001F000ACE8C009ACE8C0098D46704710B50446AC
:10020000AFF300802046BDE81040FFF7A8BF000014
:10021000004870470000002001491820ABBEFEE7EF
:10022000260002007047FEE770472DE9F0410022EA
:10023000CC7804F00F03E40601D58C7823430C78C6
:100240004FF00F0714F0FF0F4FF0010C1CD00568A2
:100250000CFA02F40E882640A64211D1960007FA45
:1002600006F825EA080503FA06F848EA0505CE78F7
:10027000282E02D0482E02D002E0446100E0046142
:10028000521C082AE4D305600A88FF2A1ED9456853
:10029000002202F108060CFA06F40E882640A64257
:1002A00010D1960007FA06F825EA080503FA06F8C1
:1002B00048EA0505CE78282E00D14461CE78482E34
:1002C00000D10461521C082AE3D34560BDE8F081E7
:1002D00002460020D2680A4200D0012070474161E6
:1002E000704701617047FEE708B50121042000F066
:1002F00083F810208DF80300FF20ADF800000320E4
:100300008DF8020069460248FFF78FFF08BD000024
:100310000008014008B50121082000F06DF8102008
:100320008DF80300FF20ADF8000003208DF80200D7
:1003300069460248FFF779FF08BD0000000C014044
:10034000FFF7CFBF70B504460D4629462046FFF79C
:10035000BFFF012805D029462046BDE87040FFF7C1
:10036000C0BF29462046BDE87040FFF7B8BFFEE792
:100370007047000070B50F23C27801260178002A6B
:100380001ED0144A126802F4E062C2F5E062120A5A
:10039000C2F10404D3404578A54082781A402A432C
:1003A000120101F1E02181F80024007800F01F0122
:1003B0008E404009800000F1E020C0F8006170BD6F
:1003C00001F01F0086404809800000F1E020C0F8DD
:1003D000806170BD0CED00E070470000054A002907
:1003E00003D0D1690143D1617047D1698143D161A3
:1003F0007047000000100240054A002903D09169AF
:100400000143916170479169814391617047000098
:1004100000100240704700F001B800000CB5002247
:10042000019200922748016841F4803101604FF445
:10043000A063016801F4003100910199491C019108
:10044000009911B901999942F3D10168890302D544
:100450000121009100E000920099012930D11A4950
:100460000A6842F010020A600A6822F003020A6079
:100470000A6842F002020A604168416041684160D6
:10048000416841F480614160416821F47C11416020
:10049000416841F4E8114160016841F080710160F8
:1004A00001688901FCD5416821F003014160416880
:1004B00041F0020141604168C1F381010229FAD192
:1004C0000CBD0000001002400020024070470000F8
:1004D00010B50F48016841F00101016041680D4A03
:1004E0001140416001680C4A11400160016821F42B
:1004F00080210160416821F4FE0141604FF41F0139
:100500008160FFF788FF05494FF00060086010BD6B
:10051000001002400000FFF8FFFFF6FE08ED00E0CB
:1005200010B501218C07204600F035F800281ED0B8
:100530000121204600F020F80D4C01212046FFF754
:1005400001FF01210B48FFF7FDFE02212046FFF7C6
:10055000F9FE08212046FFF7F5FE20212046FFF78F
:10056000F1FE2046BDE810408021FFF7EBBE10BD34
:1005700000080140000C0140C94301827047002976
:1005800004D0018841F0010101807047018821F009
:1005900001010180704702460020138A0B409289B6
:1005A0000A40002B02D0002A00D0012070477FB5FE
:1005B00001210846FFF712FF0024ADF80A40ADF80C
:1005C000064042F20F70ADF8080041F61F40ADF84A
:1005D00004004FF0804501A9284600F021F81C21B5
:1005E0008DF800108DF8014001218DF802108DF872
:1005F00003106846FFF7BEFE01221146284600F0B0
:1006000005F801212846FFF7BAFF7FBD002A03D075
:1006100082890A438281704782898A438281704736
:1006200030B502881B4C1C4DA0420DD0A8420BD007
:10063000B0F1804F08D0194B984205D0184B984222
:1006400002D0184B984203D122F070034A881A4313
:10065000154B984206D0154B984203D022F44073B4
:10066000CA881A4302808A8882850A880285A04245
:100670000AD0A84208D00E4A904205D00D4A9042B6
:1006800002D00D4A904201D1097A0186012181826E
:1006900030BD0000002C0140003401400004004047
:1006A00000080040000C0040001000400014004012
:1006B000004001400044014000480140FEE70000C6
:1006C000FFF712FEFFF726FEFFF771FF094C0A4DF8
:1006D00004212046FFF734FE10212046FFF730FEAC
:1006E00040212046FFF72CFE02212846FFF728FE76
:1006F000EEE7000000080140000C01400C07000874
:0C07000000000020600600002801000836
:040000050800016D81
:00000001FF
