:020000040800F2
:100000007006002089010008E7040008D7030008F3
:10001000E504000843020008810900080000000010
:10002000000000000000000000000000890500083A
:100030001D030008000000004D05000841060008EF
:10004000A3010008A3010008A3010008A301000800
:10005000A3010008A3010008A3010008A3010008F0
:10006000A3010008A3010008A3010008A3010008E0
:10007000A3010008A3010008A3010008A3010008D0
:10008000A3010008A3010008A3010008A3010008C0
:10009000A3010008A3010008A3010008A3010008B0
:1000A000A3010008A3010008A3010008A3010008A0
:1000B00095060008A3010008A3010008A301000899
:1000C000A3010008A3010008A3010008A301000880
:1000D000A3010008A3010008A3010008A301000870
:1000E000A3010008A3010008A301000800F002F822
:1000F00000F03AF80AA090E8000C82448344AAF188
:100100000107DA4501D100F02FF8AFF2090EBAE885
:100110000F0013F0010F18BFFB1A43F0010318473B
:10012000A80F0000C80F0000103A24BF78C878C19B
:10013000FAD8520724BF30C830C144BF04680C60ED
:10014000704700000023002400250026103A28BF35
:1001500078C1FBD8520728BF30C148BF0B60704739
:100160001FB51FBD10B510BD00F031F81146FFF7E7
:10017000F7FF00F007FC00F04FF803B4FFF7F2FFC1
:1001800003BC00F057F800000948804709480047C1
:10019000FEE7FEE7FEE7FEE7FEE7FEE7FEE7FEE737
:1001A000FEE7FEE704480549054A064B7047000094
:1001B00045060008ED0000087000002070060020D1
:1001C000700200207002002070477047704775462B
:1001D00000F02CF8AE4605006946534620F00700B3
:1001E000854618B020B5FFF7DDFFBDE820404FF091
:1001F00000064FF000074FF000084FF0000B21F011
:100200000701AC46ACE8C009ACE8C009ACE8C009DD
:10021000ACE8C0098D46704710B50446AFF30080C6
:100220002046BDE81040FFF7A8BF00000048704717
:100230000C00002001491820ABBEFEE7260002009A
:100240007047FEE730B589B00121042000F080F945
:100250000121082000F08AF94FF48070ADF82000E9
:1002600018208DF8230003208DF8220008A91648D5
:1002700000F055F80024ADF81A40ADF8164040F2F1
:10028000E730ADF818004720ADF814000F4D05A970
:10029000284600F027FB6021ADF804100121ADF8DD
:1002A0000610ADF80A400221ADF80C1001A928464D
:1002B00000F0CCFA0821284600F00AFB012128466C
:1002C00000F061FA09B030BD000C014000080040A8
:1002D00070B50D4A002811D00C49B1FBF0F4641E32
:1002E0001546A1B2284600F0F9FA5021B4FBF1F10D
:1002F0002846BDE8704089B200F0F2BABDE870400F
:100300000021104600F0ECBA0008004040420F0007
:100310000021014800F0E4BA0008004070472DE9D0
:10032000F0410022CC7804F00F03E40601D58C786C
:1003300023430C784FF00F0714F0FF0F4FF0010C20
:100340001CD005680CFA02F40E882640A64211D192
:10035000960007FA06F825EA080503FA06F848EABF
:100360000505CE78282E02D0482E02D002E0446146
:1003700000E00461521C082AE4D305600A88FF2AC1
:100380001ED94568002202F108060CFA06F40E8810
:100390002640A64210D1960007FA06F825EA08057D
:1003A00003FA06F848EA0505CE78282E00D1446104
:1003B000CE78482E00D10461521C082AE3D3456050
:1003C000BDE8F0810246002092680A4200D0012078
:1003D0007047C1607047FEE708B50121082000F0B2
:1003E000C5F848208DF803000220ADF80000032076
:1003F0008DF8020069460248FFF791FF08BD000032
:10040000000C0140F8B51C4D02212846FFF7DAFF29
:100410001A4C00264FF47A72217811B1012925D1A6
:1004200012E018BB009603E0BDF80010491C0091D3
:10043000BDF800009042F7D302212846FFF7C2FF23
:10044000A0B90120207011E001280FD1009603E02F
:10045000BDF80010491C0091BDF800009042F7D390
:1004600002212846FFF7AEFF012801D00020F8BD89
:1004700026700120F8BD0000000C014000000020A3
:1004800008B50121042000F071F810208DF8030058
:10049000FF20ADF8000003208DF8020069460248F5
:1004A000FFF73DFF08BD00000008014008B501212D
:1004B000082000F05BF810208DF80300FF20ADF855
:1004C000000003208DF8020069460248FFF727FF6D
:1004D00008BD0000000C014001460148FFF779BF4C
:1004E00000080140FEE7704770B50F23C27801266F
:1004F0000178002A1ED0144A126802F4E062C2F5A4
:10050000E062120AC2F10404D3404578A540827823
:100510001A402A43120101F1E02181F800240078F9
:1005200000F01F018E404009800000F1E020C0F87B
:10053000006170BD01F01F0086404809800000F195
:10054000E020C0F8806170BD0CED00E07047000055
:10055000054A002903D0D1690143D1617047D169AF
:100560008143D1617047000000100240054A002914
:1005700003D0916901439161704791698143916111
:100580007047000000100240704700F001B8000002
:100590000CB50022019200922748016841F4803195
:1005A00001604FF4A063016801F4003100910199EA
:1005B000491C0191009911B901999942F3D101683F
:1005C000890302D50121009100E0009200990129E0
:1005D00030D11A490A6842F010020A600A6822F013
:1005E00003020A600A6842F002020A604168416040
:1005F00041684160416841F480614160416821F493
:100600007C114160416841F4E8114160016841F0AA
:100610008071016001688901FCD5416821F0030106
:100620004160416841F0020141604168C1F38101CC
:100630000229FAD10CBD0000001002400020024047
:100640007047000010B50F48016841F001010160DA
:1006500041680D4A1140416001680C4A1140016037
:10066000016821F480210160416821F4FE014160AC
:100670004FF41F018160FFF788FF05494FF00060CC
:10068000086010BD001002400000FFF8FFFFF6FEFA
:1006900008ED00E070B501218C07204600F07FF8DE
:1006A000002868D00121204600F06AF8324CA0886A
:1006B000401CA0802088E188304DB0FBF1F201FBA6
:1006C000120055F830106088022200EB400002EB67
:1006D0004000085AA18888424DD22188E088B1FBA9
:1006E000F0F300FB131055F83010608800EB400069
:1006F00002EB4000085AA1881E30884206D3FFF75B
:1007000007FEBDE870400020FFF7E6BE6088401C91
:1007100060802088E188B0FBF1F201FB120005EB5C
:10072000C00062888188491E0020914200DA608002
:10073000A0802088E188B0FBF1F201FB120055F89F
:100740003010608800EB400031F81000FFF7C0FD6A
:100750002088E188B0FBF1F201FB120055F830105F
:100760006088042200EB400002EB4000085CBDE81A
:100770007040FFF7B1BE70BD02000020A810000855
:10078000C94301827047002904D0018841F001016A
:1007900001807047018821F0010101807047024605
:1007A0000020138A0B4092890A40002B02D0002AB5
:1007B00000D00120704700007FB501210846FFF7F7
:1007C000C7FE0024ADF80A40ADF806406320ADF83E
:1007D000080040F2CF20ADF804004FF0804601A998
:1007E000304600F07FF81C208DF800008DF80140A5
:1007F00001208DF802008DF803006846FFF774FEB3
:1008000001221146304600F017F80A4D084C28889E
:1008100054F830000088FFF75BFD288854F830005A
:100820000079FFF759FE01213046FFF7ACFF7FBD8D
:10083000A810000802000020002A03D082890A4381
:100840008281704782898A438281704770B5028CA9
:1008500022F480720284028C8388848B24F07004DA
:1008600024F003040D88254322F400720E894FF60C
:10087000FF7404EA062616434A8804EA0222324339
:10088000114EB04202D0114EB04217D122F4006690
:100890004A8904EA0222324322F480668A8804EA02
:1008A0000222324323F4805323F400538E8904EA56
:1008B00006161E43CB8904EA0313334383808583E2
:1008C000C9888187028470BD002C0140003401403A
:1008D000828B22F008020A43828370478185704729
:1008E0008187704730B502881B4C1C4DA0420DD04B
:1008F000A8420BD0B0F1804F08D0194B984205D0D8
:10090000184B984202D0184B984203D122F0700342
:100910004A881A43154B984206D0154B984203D08B
:1009200022F44073CA881A4302808A8882850A8822
:100930000285A0420AD0A84208D00E4A904205D0B3
:100940000D4A904202D00D4A904201D1097A0186A7
:100950000121818230BD0000002C014000340140A3
:100960000004004000080040000C0040001000405F
:100970000014004000400140004401400048014094
:10098000FEE70000FFF77CFDFFF790FDFFF724FD79
:10099000FFF758FCFFF710FF1D4D4FF08047FFF7A2
:1009A00031FD0128FBD12888401C2880002201212C
:1009B0003846FFF741FF1749002008801649088094
:1009C0000024164EFFF7A4FC0020FFF785FD641CF1
:1009D000B442F7DB012211463846FFF72DFF288885
:1009E0000F4C21880F4EB0FBF1F201FB120056F8BC
:1009F00030000088FFF76CFC28882188B0FBF1F2FA
:100A000001FB120056F830000079FFF765FDC6E7DC
:100A100002000020060000200400002060E3160011
:100A200008000020A8100008880190010200B80109
:100A300090010400EE01C8000800EE01C8000800A3
:100A4000EE01C8000800B801C8000400EE01C800AB
:100A500008009302900140009302C80040009302F6
:100A6000C8004000E402900180004B0258022000C0
:100A70008801C8000100B801C8000200B801C80020
:100A80000200B801C80002008801C8000100B801D6
:100A9000C80004004B02900120000B02C8001000A7
:100AA0000B02C80010004B0290012000EE0158021A
:100AB00008008801C80001004B02C8001000930222
:100AC000C80020009302C80020004B02C80010009C
:100AD0009302580220009302C80020009302C8002D
:100AE0002000E402C8004000E402C8004000930275
:100AF000C8002000E402580240009302C800200011
:100B0000E40258024000E402C80040009302900151
:100B100020001003C8008000E402200340004A01C6
:100B200090011000720190012000880158024000DD
:100B30007201C80020008801580240007201C800FC
:100B400020008801580240008801C8004000B80118
:100B5000C80080008801C80040007201C800200061
:100B60004A01C8001000260158020800F700C8001A
:100B700002002601C80008004A01C80004000B0258
:100B8000C8008000EE01200340004A0190011000DF
:100B90007201900120008801580240007201C800D3
:100BA00020008801580240007201C800200088011E
:100BB000580240008801C8004000B801C800800009
:100BC0008801C80040007201C80020004A01C80026
:100BD0001000260158020800F700C8000200260194
:100BE000C80008004A01C80004000B02C8008000C9
:100BF000EE0120034000F700C800010088019001C9
:100C000010007201900108004A0158020400F70028
:100C1000C80001008801C8001000B801C800200009
:100C20000B02C8008000EE0120034000F700C8005E
:100C300001007201C80008008801C8001000B80156
:100C4000C8002000720120030800F700C80001005E
:100C50007201C80008008801C8001000B801C8006F
:100C60002000EE0190014000EE01C8004000B801F4
:100C7000C8002000B801C8002000880190011000C1
:100C80007201900108004A01580204000601C800E0
:100C90000200F700C80001000601C800020026019A
:100CA000C80004004A01200308000000C80000003A
:100CB0004A01C80004003701C80002004A01C80008
:100CC00004007201580208000000C8000000720110
:100CD000C8000400EE01C8002000B801C8001000E0
:100CE0007201580204000000C80000007201C80030
:100CF0000400EE01C8002000B801C8001000EE0199
:100D0000580220000000C8000000EE01C8001000DA
:100D1000EE01C80010002A02C80020006E0258022E
:100D200040000000C80000006E02C80020006E02F3
:100D3000C80020009302C8004000E40220038000A5
:100D40000000C8000000000000000000B801900191
:100D500004009302900120004B02900110000B024E
:100D6000C8000800B801C800040088019001020012
:100D70000B0290010800B80120030400B8019001A3
:100D800004004B02C80010009302C80020004B0270
:100D9000900110000B02C8000800B801C800040050
:100DA0004A01900101008801C8000200B801C80092
:100DB00004008801C80002004A01580201004A01EB
:100DC000900101008801C8000200B801C8000400B9
:100DD000B80190010400B801C80004008801C800EF
:100DE0000200B801900104000B02C80008004B0289
:100DF000C80010004B02200310000B022C01080059
:100E00004B02640010009302C80020009302C80047
:100E100020009302C80020009302C80020004B026B
:100E2000C80010000B02C80008008801C8000200BA
:100E30004A01C80001000B0290010800B80120031C
:100E400004000000C80000000000000000000601CF
:100E5000FA0004000601FA0004000601F40104008F
:100E6000C400F40101004A01FA0010004A01FA002E
:100E700010004A01F40110000601F401040006010B
:100E8000FA0004004A01FA0010008801F401400051
:100E90008801F40140005D01FA0020004A01FA00D7
:100EA00010002601E80308002601FA0008004A01A4
:100EB000FA0010005D01F40120005D01F401200042
:100EC0004A01FA0010002601FA0008004A01F40164
:100ED00010000601F40104000601FA0004004A01B2
:100EE000FA0010002601F4010800C400F40101001A
:100EF000F700FA0002002601FA0008000601E803E4
:100F000004000000C80000000000000000000B0208
:100F10002C0120000B02960020000B0296002000FE
:100F200093022C0180000B022C0120004B022C01AB
:100F30004000EE012C011000880158020400B801A5
:100F40002C010800B80196000800B80196000800BE
:100F50000B022C012000B8012C010800EE012C012D
:100F6000100088012C0104004A01580201005D01B3
:100F70002C0102005D019600020088019600040029
:100F8000B8012C0108005D012C0102004A012C016E
:100F9000010088012C0104000B0258022000B80156
:100FA0002C010800B80196000800EE019600100020
:100FB0000B022C012000B8012C01080093022C0127
:100FC0004000BA022C0180004B02580220000B02A4
:100FD0002C0110000B02960010000B02960010006E
:100FE00093022C0140000B022C0110004B022C013B
:100FF000200010032C0180004B022C012000EE0188
:101000002C010800B8012C010400B801960004006E
:10101000B801960004000B022C011000B8012C014D
:101020000400EE012C01080093022C018000EE0167
:101030002C01200088012C0108005D012C01040016
:101040005D0196000400880196000800B8012C019B
:1010500004005D012C0104004A012C0102008801FA
:101060002C0108000B022C01100010032C01800041
:10107000BA022C01400093022C0120004B022C01EB
:1010800010000B022C0108004B02840310000B021D
:101090002C0108000B02B00408000000C80000008A
:1010A00000000000000000004E0E000820000000BC
:1010B0004C0D00082B000000280A000886000000E4
:1010C0000E0F000844000000E81000080000002097
:1010D0000C00000028010008F41000080C0000209B
:1010E0006406000044010008000000000000000049
:0410F00004000000F8
:040000050800018965
:00000001FF
